{
  "contractName": "Adoption",
  "abi": [
    {
      "constant": true,
      "inputs": [],
      "name": "getAdopters",
      "outputs": [
        {
          "name": "",
          "type": "address[16]"
        }
      ],
      "payable": false,
      "stateMutability": "view",
      "type": "function"
    },
    {
      "constant": true,
      "inputs": [
        {
          "name": "",
          "type": "uint256"
        }
      ],
      "name": "adopters",
      "outputs": [
        {
          "name": "",
          "type": "address"
        }
      ],
      "payable": false,
      "stateMutability": "view",
      "type": "function"
    },
    {
      "constant": true,
      "inputs": [],
      "name": "getPetsByOwner",
      "outputs": [
        {
          "name": "result",
          "type": "uint256[]"
        }
      ],
      "payable": false,
      "stateMutability": "view",
      "type": "function"
    },
    {
      "constant": true,
      "inputs": [],
      "name": "getPetsCount",
      "outputs": [
        {
          "name": "",
          "type": "uint256"
        }
      ],
      "payable": false,
      "stateMutability": "view",
      "type": "function"
    },
    {
      "constant": false,
      "inputs": [
        {
          "name": "petId",
          "type": "uint256"
        }
      ],
      "name": "adopt",
      "outputs": [
        {
          "name": "",
          "type": "uint256"
        }
      ],
      "payable": false,
      "stateMutability": "nonpayable",
      "type": "function"
    }
  ],
  "bytecode": "0x6060604052341561000f57600080fd5b61054e8061001e6000396000f30060606040526004361061006d576000357c0100000000000000000000000000000000000000000000000000000000900463ffffffff1680633de4eb171461007257806343ae80d3146100c357806346b0698c1461012657806375f92dfd146101905780638588b2c5146101b9575b600080fd5b341561007d57600080fd5b6100856101f0565b6040518082601060200280838360005b838110156100b0578082015181840152602081019050610095565b5050505090500191505060405180910390f35b34156100ce57600080fd5b6100e46004808035906020019091905050610271565b604051808273ffffffffffffffffffffffffffffffffffffffff1673ffffffffffffffffffffffffffffffffffffffff16815260200191505060405180910390f35b341561013157600080fd5b6101396102a6565b6040518080602001828103825283818151815260200191508051906020019060200280838360005b8381101561017c578082015181840152602081019050610161565b505050509050019250505060405180910390f35b341561019b57600080fd5b6101a36103bf565b6040518082815260200191505060405180910390f35b34156101c457600080fd5b6101da600480803590602001909190505061040b565b6040518082815260200191505060405180910390f35b6101f86104cf565b6000601080602002604051908101604052809291908260108015610267576020028201915b8160009054906101000a900473ffffffffffffffffffffffffffffffffffffffff1673ffffffffffffffffffffffffffffffffffffffff168152602001906001019080831161021d575b5050505050905090565b60008160108110151561028057fe5b016000915054906101000a900473ffffffffffffffffffffffffffffffffffffffff1681565b6102ae61050e565b60008060009150601060003373ffffffffffffffffffffffffffffffffffffffff1673ffffffffffffffffffffffffffffffffffffffff168152602001908152602001600020546040518059106103025750595b90808252806020026020018201604052509250600090505b60108110156103ba573373ffffffffffffffffffffffffffffffffffffffff1660008260108110151561034957fe5b0160009054906101000a900473ffffffffffffffffffffffffffffffffffffffff1673ffffffffffffffffffffffffffffffffffffffff1614156103ad5780838381518110151561039657fe5b906020019060200201818152505081806001019250505b808060010191505061031a565b505090565b600080601060003373ffffffffffffffffffffffffffffffffffffffff1673ffffffffffffffffffffffffffffffffffffffff1681526020019081526020016000205490508091505090565b600080821015801561041e5750600f8211155b151561042957600080fd5b3360008360108110151561043957fe5b0160006101000a81548173ffffffffffffffffffffffffffffffffffffffff021916908373ffffffffffffffffffffffffffffffffffffffff160217905550601060003373ffffffffffffffffffffffffffffffffffffffff1673ffffffffffffffffffffffffffffffffffffffff16815260200190815260200160002060008154809291906001019190505550819050919050565b610200604051908101604052806010905b600073ffffffffffffffffffffffffffffffffffffffff168152602001906001900390816104e05790505090565b6020604051908101604052806000815250905600a165627a7a72305820707fca7f60ceaddd8c3a9076793a28d8b8f7c1a63a6e674abd89133f90ea36040029",
  "source": "pragma solidity ^0.4.2;\r\n\r\ncontract Adoption {\r\n\r\n    address[16] public adopters;\r\n    mapping (address => uint) ownerPetsCount;\r\n\r\n    function getPetsCount() public view returns (uint) {\r\n        uint count;\r\n        count = ownerPetsCount[msg.sender];\r\n        return count;\r\n    }\r\n\r\n    // Adopting a pet\r\n    function adopt(uint petId) public returns (uint) {\r\n        require(petId >= 0 && petId <= 15);\r\n        adopters[petId] = msg.sender;\r\n        ownerPetsCount[msg.sender]++;\r\n        return petId;\r\n    }\r\n\r\n    // Retrieving the adopters\r\n    function getAdopters() public view returns (address[16]) {\r\n        return adopters;\r\n    }\r\n\r\n    function getPetsByOwner() external view returns(uint[] memory result) {\r\n        uint counter = 0;\r\n        result = new uint[](ownerPetsCount[msg.sender]);\r\n        for (uint i = 0; i < adopters.length; i++) {\r\n            if (adopters[i] == msg.sender) {\r\n                result[counter] = i;\r\n                counter++;\r\n            }\r\n        }\r\n    }\r\n\r\n}\r\n\r\n",
  "sourcePath": "C:\\Coding\\pet-shop-tutorial\\contracts\\Adoption.sol",
  "compiler": {
    "name": "solc",
    "version": "0.4.18+commit.9cf6e910.Emscripten.clang"
  },
  "schemaVersion": "1.0.1",
  "updatedAt": "2018-01-17T21:06:23.479Z"
}